:02000000E628F0
:10000800DF00030E8301BF000A08BE008A010B1D32
:100018001E283D1C182883123C08B9003C08FF3CE8
:10002800810087103D101D2883123908810087142C
:100038003D140B113E088A003F0E8300DF0E5F0E51
:020048000900AD
:0C004A0007308312DD00DD0B28280800C1
:100056000D308312DC00FB30DD00DD0B3028DC0BBD
:08006600302800000000080032
:10006E0082308312DC00DD30DD00DD0B3C28DC0B42
:08007E003C280000000008000E
:10008600C33083129F0540309F05F03083169F04CE
:1000960083129F174308D000D00D5010D00D50107A
:1000A60050089F041F1425209F149F1C5C280000E5
:1000B60058281F101E08D100D00183161E085004B0
:1000C600C4005108C5000030C5044408D0004508E6
:0400D600D10008004D
:1000DA0083120313D801D9011030DC00510DD80D59
:1000EA00D90D5408D8025508031C550FD902031814
:1000FA0085285408D80755080318550FD90703103F
:0A010A00D00DD10DDC0B73280800A6
:1001140083169C1C8F2800008A2843089B004408EF
:100124009A009C131C150B08D0008B1355309D00AE
:10013400AA309D009C14D01BA1288B13A2288B17D6
:040144001C11080082
:100148008312430883169B009C131C141A08D100C1
:060158005108D000080070
:10015E00831203132230DC00D801D901DA01DB014E
:10016E00DC030319E5280310DB0CDA0CD90CD80CD0
:10017E00D30CD20CD10CD00C031CB728DC03031902
:10018E00D7285408D80755080318550FD90756080D
:10019E000318560FDA0757080318570FDB07BB284B
:1001AE005408D80755080318550FD90756080318D1
:0E01BE00560FDA0757080318570FDB07080023
:1001CC0007308312990005308316910005148514AD
:1001DC00051583121F179F159F178316871007127B
:1001EC0087158312071287143D14FA30BA00B9012F
:1001FC00BC01BB01DF30831681008B160430C000BC
:10020C002B2087191629372037203720C30143208C
:10021C005008C1005108C200C3014108C4008A2023
:10022C003720C301A4205008C000B8010330C3001C
:10023C00A4205008B80083121016901017308E00AE
:10024C00FC308F00B101B201C101C201AD01AE01A0
:10025C00AF01B001AC01B3016430B700DC30B500C4
:10026C000530B6008B1710140330BC000330B400FB
:10027C00FF30A300FF30A200A001A10183120C1CCF
:10028C005429FC308F0017308E000C10BB0A3A0832
:10029C003B02031C542910308706BB01FE303C0284
:1002AC00031C5B294030BA0064293C083402031C4F
:1002BC0062295A30BA0064297830BA002D08A4009B
:1002CC002E08A5002F08A6003008A7004108A000A2
:1002DC004208A100B101B201C101C201AB01C301CD
:1002EC0043205008C10751080318013EC2070230D1
:1002FC00C30043205008B10751080318013EB20750
:10030C002B08003A03198C29AB0A75294008D10037
:10031C00D20142085202031D9529410851020318CB
:10032C00A1294008D000D1015008C102031CC2030E
:10033C005108C202A329C101C2014208003C031D9D
:10034C00A9294108003C0318AA2A3408003A031DC5
:10035C00B1293C08B4004108D0004208D100D201B8
:10036C00D3013108D4003208D500D601D701AF2013
:10037C005008AD005108AE005208AF005308B00051
:10038C0053082706031DD42952082606031DD42919
:10039C0051082506031DD42950082406031DF129F4
:1003AC00AA0142082102031DDD294108200203187D
:1003BC00E129A201ED2921084202031DE7292008A9
:1003CC0041020318EC29FF30A200ED29A209B30168
:1003DC00F030BA00442908302A020318F629AA0A78
:1003EC0027083002031D042A26082F02031D042AA5
:1003FC0025082E02031D042A24082D020318A72AFF
:10040C003C08AC00A2093308003A0319A62AAA0139
:10041C002C08A800A9013308A8070318A90AA80AE0
:10042C000319A90AA90CA80CA9130330A8070318CF
:10043C00A90A2908003AFF3003190030D100280816
:10044C00FF3CFF3003180030D0005108D0040319D2
:10045C00342AFF30A8000030A9003C2A03302802BF
:10046C0003183C2A0330A8000030A9002808BC005F
:10047C00B3012808FF3CD0000030031C013ED10121
:10048C00D1020330D0070318D10A0630D400D501AD
:10049C006D205008A8005108A9003C08D200D301D7
:1004AC0052085007A80051080318013E5307A90031
:1004BC002908003AFF3003190030D1002808FF3C0E
:1004CC00FF3003180030D0005108D0040319712AF2
:1004DC00FF30A800A9012808A30003303C02D0007B
:1004EC000030031C013ED101D1020830D0070318A3
:1004FC00D10A0F30D400D5016D205008A800510846
:10050C00A9003C08A800A9015008A802031CA903D3
:10051C005108A9022908003AFF3003190030D10014
:10052C0003302802FF3003180030D0005108D004EB
:10053C000319A32A0330A800A9012808B4004429F0
:10054C00A92A3C08B300B72AAD01AE01AF01B00136
:10055C000830AA00FF30A200B3010330B400FF3012
:10056C00A30022080319C72A2A082302D100510824
:10057C003C020318C42A2A08BC07C62A2308BC005C
:10058C00D92A2A08093CD00050083407D1003C086D
:10059C0051020318D72A2A08093CD0005008BC0283
:0A05AC00D92A3408BC004429DA2AD9
:02400E00D431AB
:020000040000FA
:104200000000FF00FF000000FF00FF00FF00FF00B4
:10421000FF00FF00FF00FF00FF00FF00FF00FF00A6
:10422000FF00FF00FF00FF00FF00FF00FF00FF0096
:10423000FF00FF00FF00FF00FF00FF00FF00FF0086
:10424000FF00FF00FF00FF00FF00FF00FF00FF0076
:10425000FF00FF00FF00FF00FF00FF00FF00FF0066
:10426000FF00FF00FF00FF00FF00FF00FF00FF0056
:10427000FF00FF00FF00FF00FF00FF00FF00FF0046
:10428000FF00FF00FF00FF00FF00FF00FF00FF0036
:10429000FF00FF00FF00FF00FF00FF00FF00FF0026
:1042A000FF00FF00FF00FF00FF00FF00FF00FF0016
:1042B000FF00FF00FF00FF00FF00FF00FF00FF0006
:1042C000FF00FF00FF00FF00FF00FF00FF00FF00F6
:1042D000FF00FF00FF00FF00FF00FF00FF00FF00E6
:1042E000FF00FF00FF00FF00FF00FF00FF00FF00D6
:1042F000FF00FF00FF00FF00FF00FF00FF00FF00C6
:00000001FF

