:02000000CA280C
:10000800DF00030E8301C4000A08C3008A010B1D28
:100018001F283F1C1828831287103F103C08BD007A
:100028003C08FF3C81001E2883123D08373E8100B2
:1000380087143F140B1143088A00440E8300DF0E17
:040048005F0E09003E
:0C004C0007308312DD00DD0B29280800BE
:1000580082308312DC00DD30DD00DD0B3128DC0B63
:0800680031280000000008002F
:100070000D308312DC00FB30DD00DD0B3D28DC0B96
:080080003D280000000008000B
:10008800C33083129F0540309F05F03083169F04CC
:1000980083129F174508D000D00D5010D00D501076
:1000A80050089F041F1426209F149F1C5D280000E1
:1000B80059281F101E08D100D00183161E085004AD
:1000C800C6005108C7000030C7044608D0004708DA
:0400D800D10008004B
:1000DC0083169C1C732800006E2845089B0046085C
:1000EC009A009C131C150B08D0008B1355309D00E7
:1000FC00AA309D009C14D01B85288B1386288B1747
:04010C001C110800BA
:100110008312450883169B009C131C141A08D100F7
:060120005108D0000800A8
:10012600831203132230DC00D801D901DA01DB0186
:10013600DC030319C9280310DB0CDA0CD90CD80C24
:10014600D30CD20CD10CD00C031C9B28DC03031956
:10015600BB285408D80755080318550FD907560861
:100166000318560FDA0757080318570FDB079F289F
:100176005408D80755080318550FD9075608031809
:0E018600560FDA0757080318570FDB0708005B
:1001940007308312990005308316910005148514E5
:1001A400051583121F179F159F17831687100712B3
:1001B40087158312071287143F14FA30BE00BD015D
:1001C400BC01C001C101DF30831681008B16C2015E
:1001D400382087190A292C202C202C20C5014420E2
:1001E4005008AD005108AE00C5012D08C6006E20B0
:1001F4002C2007160430DB008E30DC001230DD00CA
:10020400DD0B0229DC0B0229DB0B0229000007129B
:100214002C20C50188205008C200831210169010AB
:1002240018308E00FC308F000C10B301B401AD0106
:10023400AE01AF01B001B101B2018B1710146F30E0
:10024400BC00AC01A401A501A201A301A001A1016C
:10025400AA01AB0183120C1C3729FC308F00183023
:100264008E000C10C00A0319C10A4008A8004108F6
:10027400A9002A084002D1002B08031C013E4102B8
:10028400D2005208003C031D492951083E020318BC
:1002940051294008AA004108AB00103087062D08F8
:1002A400A4002E08A5002208A6002308A7003308EE
:1002B400A2003408A300B301B401AD01AE01B5013D
:1002C4000230C50044205008A8005108A900C50107
:1002D40044205008BA005108BB002808B307290875
:1002E4000318013EB4075008AD0751080318013E36
:1002F400AE073508073A03198129B50A6229B40CF7
:10030400B30CB413B40CB30CB413B40CB30CB413D7
:10031400AE0CAD0CAE13AE0CAD0CAE13AE0CAD0CFE
:10032400AE13B30DB40D3310B30DB40D3310400838
:10033400A8004108A90020084002D1002108031C9C
:10034400013E4102D20000305202031DAB29143099
:1003540051020318AE29452A4008A0004108A10013
:100364002F08B6003008B7003108B8003208B900C9
:100374003308D0003408D100D201D3012D08D400B1
:100384002E08D500D601D70193205008AF0051089C
:10039400B0005208B1005308B2002E08003C031DFF
:1003A400D5292D0842020318222A32083906031DD2
:1003B400E52931083806031DE52930083706031DF1
:1003C400E5292F083606031DEA297D30BE00452A9B
:1003D40032083902031DF82931083802031DF829AF
:1003E40030083702031DF8292F0836020318FD29A7
:1003F4006430BE00002A4B30BE00AC092608330727
:10040400D00034080318013E2707D1005008013EEC
:10041400D30000300318013E5107D4005308D10023
:100424005408D200D20CD10CD21323085202031D5B
:100434001D2A220851020318212AFF30AC002E2A5B
:100444004B30BE006F30BC00AC01AF01B001B10154
:10045400B201AD01AE01452A2C0803193B2AC8306C
:100464003C020318372ABC0A3A2AC830BC00AC0143
:10047400452A3C08023C0318412ABC03452A0230A1
:0A048400BC00FF30AC002C29462A12
:02400E00D431AB
:020000040000FA
:104200000000FF00FF000000FF00FF00FF00FF00B4
:10421000FF00FF00FF00FF00FF00FF00FF00FF00A6
:10422000FF00FF00FF00FF00FF00FF00FF00FF0096
:10423000FF00FF00FF00FF00FF00FF00FF00FF0086
:10424000FF00FF00FF00FF00FF00FF00FF00FF0076
:10425000FF00FF00FF00FF00FF00FF00FF00FF0066
:10426000FF00FF00FF00FF00FF00FF00FF00FF0056
:10427000FF00FF00FF00FF00FF00FF00FF00FF0046
:10428000FF00FF00FF00FF00FF00FF00FF00FF0036
:10429000FF00FF00FF00FF00FF00FF00FF00FF0026
:1042A000FF00FF00FF00FF00FF00FF00FF00FF0016
:1042B000FF00FF00FF00FF00FF00FF00FF00FF0006
:1042C000FF00FF00FF00FF00FF00FF00FF00FF00F6
:1042D000FF00FF00FF00FF00FF00FF00FF00FF00E6
:1042E000FF00FF00FF00FF00FF00FF00FF00FF00D6
:1042F000FF00FF00FF00FF00FF00FF00FF00FF00C6
:00000001FF

