:02000000F528E1
:10000800DF00030E8301C4000A08C5008A010B1D26
:100018001E2883120230870687181A280130A90083
:100028003D08BE003D08FF3C81001D283E08373EC4
:1000380081000B1183120C1C2928FC308F0017300B
:100048008E000C10C00A0319C10A45088A00440E24
:080058008300DF0E5F0E0900BA
:0C00600007308312DD00DD0B33280800A0
:10006C0082308312DC00DD30DD00DD0B3B28DC0B45
:08007C003B2800000000080011
:10008400C33083129F05BF309F05F03083169F0451
:1000940083129F174808D000D00D5010D00D501077
:1000A40050089F041F1430209F149F1C5B280000DD
:1000B40057281F101E08D100D00183161E085004B3
:1000C400C9005108CA000030CA044908D0004A08CF
:0400D400D10008004F
:1000D800831203132230DC00D801D901DA01DB01D5
:1000E800DC030319A2280310DB0CDA0CD90CD80C9A
:1000F800D30CD20CD10CD00C031C7428DC030319CC
:1001080094285408D80755080318550FD9075608D6
:100118000318560FDA0757080318570FDB07782814
:100128005408D80755080318550FD9075608031857
:0E013800560FDA0757080318570FDB070800A9
:1001460083169C1CA8280000A32848089B00490881
:100156009A009C131C150B08D0008B1355309D007C
:10016600AA309D009C14D01BBA288B13BB288B1772
:040176001C11080050
:10017A008312480883169B009C131C141A08D1008A
:06018A005108D00008003E
:1001900083124B084902031DCF284A08480203185E
:1001A000E8284A08FF3CD0004B08031C013EFF3CF6
:1001B000D1004808D00749080318013ED10750086C
:1001C000013ED20000300318013E5107D300F02851
:1001D0004A084802D2004B08031C013E4902D300E2
:0A01E0005208D0005308D1000800B7
:1001EA00073083129900053083169100051485148F
:1001FA00051583121F179F159F178316871007125D
:10020A0087158312071287146430C200C301BE0126
:10021A00BD01C001C101DF30831681008B16BF0109
:10022A003620362064008719362936203620C80140
:10023A0042205008C6005108C700C8014608C90034
:10024A00A320362007160430DB008E30DC00123083
:10025A00DD00DD0B2E29DC0B2E29DB0B2E290000FD
:10026A00071264003620C801BD205008BF0050089C
:10027A001F3C03184129BF018312901090121012DB
:10028A0017308E00FC308F000C10B101B201C6018C
:10029A00C701AD01AE01AF01B00183160C140B17F3
:1002AA008B17831210141430BD00FF30AC00AA0162
:1002BA00AB01A401A50164000230DB008630DC003A
:1002CA009930DD00DD0B6729DC0B6729DB0B672919
:1002DA0007160230DB008630DC009930DD00DD0BCA
:1002EA007429DC0B7429DB0B742907126400A20140
:1002FA00A3014008A0004108A1004008C800410825
:10030A00C9002408CA002508CB00C82051084302A6
:10031A00031D912950084202031899292008A400B4
:10032A002108A500103087062008C8002108C90046
:10033A002208CA002308CB00C8205108033C031D29
:10034A00A8295008E83C0318AD29A201A3016400BA
:10035A00A9012908003A0319AE29C8014220500808
:10036A00C6005108C7000230C80042205008A70042
:10037A005108A8000130A600C80142205008B30065
:10038A005108B4000230C80042205008A0005108A9
:10039A00A1005008A70751080318013EA807A80C96
:1003AA00A70CA8133308C60734080318013EC70769
:1003BA00C70CC60CC7132608033A0319E629A60A6E
:1003CA00C1292708B1002808B200B10DB20D3110B9
:1003DA00B10DB20D31104008A0004108A10040083B
:1003EA00C8004108C9002A08CA002B08CB00C82047
:1003FA0000305102031D032A323050020318062A24
:10040A00292B2008AA002108AB002D08B9002E08C4
:10041A00BA002F08BB003008BC003108D0003208EF
:10042A00D100D201D3014608D4004708D500D6012D
:10043A00D7016C205008AD005108AE005208AF0039
:10044A005308B0004608D1004708D200D301D401AE
:10045A002708D10728080318280FD20729080318E4
:10046A00290FD3072A0803182A0FD4075108D500E1
:10047A005208D6005308D7005408D800D50DD60D17
:10048A00D70DD80D5510D50DD60DD70DD80D551041
:10049A005508D1005608D2005708D3005808D4008E
:1004AA00D10DD20DD30DD40D51105108B5005208FB
:1004BA00B6005308B7005408B80000305402031DB0
:1004CA00702A00305302031D702A00305202031DA5
:1004DA00702A323051020318772A3230B500B60139
:1004EA00B701B80105303F07D1004708003C031D9A
:1004FA00802A460851020318072B30083C06031DC0
:10050A00902A2F083B06031D902A2E083A06031D3F
:10051A00902A2D083906031D972AF430C2000130AB
:10052A00C300292B3C083002031DA52A3B082F02D1
:10053A00031DA52A3A082E02031DA52A39082D02F1
:10054A000318D72A3908D1003A08D2003B08D30049
:10055A003C08D4002D08D1022E08031C2E0FD2020B
:10056A002F08031C2F0FD3023008031C300FD402AC
:10057A0038085402031DCB2A37085302031DCB2A1D
:10058A0036085202031DCB2A350851020318D22A13
:10059A00F430C2000130C300292B9630C200C301D7
:1005AA00AC09062B2D08D1002E08D2002F08D30043
:1005BA003008D4003908D1023A08031C3A0FD20293
:1005CA003B08031C3B0FD3023C08031C3C0FD4021C
:1005DA0038085402031DFB2A37085302031DFB2A5D
:1005EA0036085202031DFB2A350851020318022B52
:1005FA00F430C2000130C300292B2C30C200013074
:10060A00C300122B9630C200C301FF30AC00AD010B
:10061A00AE01AF01B001C601C7012C0803191F2B97
:10062A005A303D0203181B2BBD0A1E2B5A30BD003F
:10063A00AC01292B3D080C3C0318252BBD03292BA3
:0C064A000C30BD00FF30AC007E292A2BD4
:02400E00DC31A3
:020000040000FA
:104200000000FF00FF000000FF00FF00FF00FF00B4
:10421000FF00FF00FF00FF00FF00FF00FF00FF00A6
:10422000FF00FF00FF00FF00FF00FF00FF00FF0096
:10423000FF00FF00FF00FF00FF00FF00FF00FF0086
:10424000FF00FF00FF00FF00FF00FF00FF00FF0076
:10425000FF00FF00FF00FF00FF00FF00FF00FF0066
:10426000FF00FF00FF00FF00FF00FF00FF00FF0056
:10427000FF00FF00FF00FF00FF00FF00FF00FF0046
:10428000FF00FF00FF00FF00FF00FF00FF00FF0036
:10429000FF00FF00FF00FF00FF00FF00FF00FF0026
:1042A000FF00FF00FF00FF00FF00FF00FF00FF0016
:1042B000FF00FF00FF00FF00FF00FF00FF00FF0006
:1042C000FF00FF00FF00FF00FF00FF00FF00FF00F6
:1042D000FF00FF00FF00FF00FF00FF00FF00FF00E6
:1042E000FF00FF00FF00FF00FF00FF00FF00FF00D6
:1042F000FF00FF00FF00FF00FF00FF00FF00FF00C6
:00000001FF

