:02000000F528E1
:10000800DF00030E8301C6000A08C7008A010B1D22
:100018001E2883120230870687181A280130A70085
:100028003F08C0003F08FF3C81001D284008373EBC
:1000380081000B1183120C1C2928FC308F0017300B
:100048008E000C10C20A0319C30A47088A00460E1C
:080058008300DF0E5F0E0900BA
:0C00600007308312DD00DD0B33280800A0
:10006C0082308312DC00DD30DD00DD0B3B28DC0B45
:08007C003B2800000000080011
:10008400C33083129F05BF309F05F03083169F0451
:1000940083129F174908D000D00D5010D00D501076
:1000A40050089F041F1430209F149F1C5B280000DD
:1000B40057281F101E08D100D00183161E085004B3
:1000C400CA005108CB000030CB044A08D0004B08CA
:0400D400D10008004F
:1000D800831203132230DC00D801D901DA01DB01D5
:1000E800DC030319A2280310DB0CDA0CD90CD80C9A
:1000F800D30CD20CD10CD00C031C7428DC030319CC
:1001080094285408D80755080318550FD9075608D6
:100118000318560FDA0757080318570FDB07782814
:100128005408D80755080318550FD9075608031857
:0E013800560FDA0757080318570FDB070800A9
:1001460083169C1CA8280000A32849089B004A087F
:100156009A009C131C150B08D0008B1355309D007C
:10016600AA309D009C14D01BBA288B13BB288B1772
:040176001C11080050
:10017A008312490883169B009C131C141A08D10089
:06018A005108D00008003E
:1001900083124C084A02031DCF284B08490203185A
:1001A000E8284B08FF3CD0004C08031C013EFF3CF4
:1001B000D1004908D0074A080318013ED10750086A
:1001C000013ED20000300318013E5107D300F02851
:1001D0004B084902D2004C08031C013E4A02D300DE
:0A01E0005208D0005308D1000800B7
:1001EA00073083129900053083169100051485148F
:1001FA00051583121F179F159F178316871007125D
:10020A0087158312071287146430C400C501C00120
:10021A00BF01C201C301C101DF30831681008B1601
:10022A00C80136203620640087193729362036203F
:10023A00C90142205008BD005108BE00C9013D084D
:10024A00CA00A320362007160430DB008E30DC00FB
:10025A001230DD00DD0B2F29DC0B2F29DB0B2F29B8
:10026A000000071264003620C901BD205008C800EA
:10027A0050081F3C03184229C8018312901090129B
:10028A00101217308E00FC308F000C10B101B20131
:10029A00BD01BE01AD01AE01AF01B00183160C1460
:1002AA000B178B17831210143C30BF00FF30AC00C1
:1002BA00AA01AB01A401A501A201A30164000230B5
:1002CA00DB008630DC009930DD00DD0B6A29DC0BAF
:1002DA006A29DB0B6A2907160230DB008630DC004C
:1002EA009930DD00DD0B7729DC0B7729DB0B7729C9
:1002FA0007126400A001A1014208A8004308A9004E
:10030A004208C9004308CA002208CB002308CC00CF
:10031A00C82051084502031D9429500844020318B5
:10032A009C292808A2002908A3001030870628085B
:10033A00C9002908CA002008CB002108CC00C8201F
:10034A005108033C031DAB295008E83C0318B029A7
:10035A00A001A10164003D08AA003E08AB00A70164
:10036A002708003A0319B529C90142205008BD00DF
:10037A005108BE000230C90042205008B10051089D
:10038A00B2000130A600C90142205008B30051084A
:10039A00B4000230C90042205008A8005108A90040
:1003AA005008B10751080318013EB207B20CB10C4C
:1003BA00B2133308BD0734080318013EBE07BE0C4A
:1003CA00BD0CBE132608033A0319ED29A60AC8294B
:1003DA00B10DB20D3110B10DB20D31104208A800A5
:1003EA004308A9004208C9004308CA002408CB00F0
:1003FA002508CC00C82000305102031D062A2830E7
:10040A0050020318092A6A2B2808A4002908A50003
:10041A002D08B9002E08BA002F08BB003008BC000E
:10042A003108D0003208D100D201D3013D08D400EE
:10043A003E08D500D601D7016C205008AD005108FE
:10044A00AE005208AF005308B0005108D900520854
:10045A00DA005308DB00DC010A30D8005008D40067
:10046A005108D5005208D6005308D7005808031976
:10047A00452AD70CD60CD50CD40CD713FF3E3C2AF0
:10048A005408D90755080318550FDA0756080318F0
:10049A00560FDB0757080318570FDC070B30D40039
:1004AA005008D5005108D6005208D7005308D80082
:1004BA0054080319672AD80CD70CD60CD50CD813B4
:1004CA00FF3E5E2A5908D1005A08D2005B08D300C1
:1004DA005C08D4005508D10756080318560FD207EE
:1004EA0057080318570FD30758080318580FD4078B
:1004FA005108B5005208B6005308B7005408B800AE
:10050A0000305402031D932A00305302031D932A1C
:10051A0007305202031D932AD030510203189B2A36
:10052A00D030B5000730B600B701B8013E08003C2C
:10053A00031DA12A3D0848020318442B30083C0633
:10054A00031DB12A2F083B06031DB12A2E083A06BD
:10055A00031DB12A2D083906031DB92AF430C40037
:10056A000130C500C1016A2B3C083002031DC72AAD
:10057A003B082F02031DC72A3A082E02031DC72A69
:10058A0039082D020318122B3908D1003A08D20073
:10059A003B08D3003C08D4002D08D1022E08031CC6
:1005AA002E0FD2022F08031C2F0FD3023008031C70
:1005BA00300FD40238085402031DED2A37085302BB
:1005CA00031DED2A36085202031DED2A3508510291
:1005DA000318F52AF430C4000130C500C1016A2BA2
:1005EA009630C400C501C10A02304102FF30031C23
:1005FA000030D1002B083E02031D052B2A083D02BC
:10060A00FF3003180030D0005108D0050319102B11
:10061A00FF30AC00112BAC09432B2D08D1002E085A
:10062A00D2002F08D3003008D4003908D1023A0882
:10063A00031C3A0FD2023B08031C3B0FD3023C08AF
:10064A00031C3C0FD40238085402031D362B37080A
:10065A005302031D362B36085202031D362B35086A
:10066A00510203183E2BF430C4000130C500C10109
:10067A006A2B2C30C4000130C500C101532B9630BF
:10068A00C400C5013C30BF00FF30AC00AD01AE0173
:10069A00AF01B001BD01BE01C1016A2B2C080319CB
:1006AA00602BC8303F0203185C2BBF0A5F2BC8308F
:1006BA00BF00AC016A2B3F080A3C0318662BBF0334
:0E06CA006A2B0A30BF00FF30AC0081296B2B79
:02400E00DC31A3
:020000040000FA
:104200000000FF00FF000000FF00FF00FF00FF00B4
:10421000FF00FF00FF00FF00FF00FF00FF00FF00A6
:10422000FF00FF00FF00FF00FF00FF00FF00FF0096
:10423000FF00FF00FF00FF00FF00FF00FF00FF0086
:10424000FF00FF00FF00FF00FF00FF00FF00FF0076
:10425000FF00FF00FF00FF00FF00FF00FF00FF0066
:10426000FF00FF00FF00FF00FF00FF00FF00FF0056
:10427000FF00FF00FF00FF00FF00FF00FF00FF0046
:10428000FF00FF00FF00FF00FF00FF00FF00FF0036
:10429000FF00FF00FF00FF00FF00FF00FF00FF0026
:1042A000FF00FF00FF00FF00FF00FF00FF00FF0016
:1042B000FF00FF00FF00FF00FF00FF00FF00FF0006
:1042C000FF00FF00FF00FF00FF00FF00FF00FF00F6
:1042D000FF00FF00FF00FF00FF00FF00FF00FF00E6
:1042E000FF00FF00FF00FF00FF00FF00FF00FF00D6
:1042F000FF00FF00FF00FF00FF00FF00FF00FF00C6
:00000001FF

