:02000000E828EE
:10000800DF00030E8301C5000A08C4008A010B1D26
:100018001F28421C182883123D08BE003D08FF3CDB
:100028008100871042101E2883123E08053E810079
:10003800871442140B1144088A00450E8300DF0E12
:040048005F0E09003E
:0C004C0007308312DD00DD0B29280800BE
:100058000D308312DC00FB30DD00DD0B3128DC0BBA
:0800680031280000000008002F
:1000700082308312DC00DD30DD00DD0B3D28DC0B3F
:080080003D280000000008000B
:10008800C33083129F0540309F05F03083169F04CC
:1000980083129F174608D000D00D5010D00D501075
:1000A80050089F041F1426209F149F1C5D280000E1
:1000B80059281F101E08D100D00183161E085004AD
:1000C800C7005108C8000030C8044708D0004808D5
:0400D800D10008004B
:1000DC00831203132230DC00D801D901DA01DB01D1
:1000EC00DC030319A4280310DB0CDA0CD90CD80C94
:1000FC00D30CD20CD10CD00C031C7628DC030319C6
:10010C0096285408D80755080318550FD9075608D0
:10011C000318560FDA0757080318570FDB077A280E
:10012C005408D80755080318550FD9075608031853
:0E013C00560FDA0757080318570FDB070800A5
:10014A0083169C1CAA280000A52846089B0047087D
:10015A009A009C131C150B08D0008B1355309D0078
:10016A00AA309D009C14D01BBC288B13BD288B176A
:04017A001C1108004C
:10017E008312460883169B009C131C141A08D10088
:06018E005108D00008003A
:10019400803083124706D00080305002031DD428DB
:1001A400003046020318DF284608003CD200470806
:1001B400031C013ED301D302E3284608D2004708BA
:0C01C400D3005208D0005308D1000800FE
:1001D00007308312990005308316910005148514A9
:1001E000051583121F179F159F1783168710071277
:1001F00087158312071287144214FA30C100BE011A
:10020000BD01BF01C001DF30831681008B16C30121
:100210002C2087192829382038203820C60144206E
:100220005008BB005108BC00C6013B08C700A52010
:10023000382007160430DB008E30DC001230DD0081
:10024000DD0B2029DC0B2029DB0B20290000071205
:100250003820C601BF205008C300831290169010AA
:1002600018308E00FC308F000C10B201B301BB01BE
:10027000BC01AE01AF01B001B1018B1710147D308C
:10028000BD00AD01AB01AC01A401A501A201A30118
:10029000A001A10183120C1C5529FC308F001830DD
:1002A0008E000C10BF0A0319C00A20083F02C600C6
:1002B0002108031C013E4002C700CA208030D20042
:1002C000803051065202031D67295008410203186D
:1002D0006F293F08A0004008A100103087063B08A6
:1002E000AB003C08AC002408A9002508AA0032088D
:1002F000A4003308A500B201B301BB01BC01A801F1
:100300000230C60044205008A6005108A700C601CC
:1003100044205008B4005108B5002608B207270849
:100320000318013EB3075008BB0751080318013EEC
:10033000BC072808033A03199F29A80A8029B30C8F
:10034000B20CB313B30CB20CB313BC0CBB0CBC1388
:10035000BC0CBB0CBC13B20DB30D3210B20DB30DFF
:10036000321022083F02C6002308031C013E40024F
:10037000C700CA2080305106D20080305202031DCF
:10038000C329143050020318C6294A293F08A20085
:100390004008A3002E08B7002F08B8003008B900A5
:1003A0003108BA003208D0003308D100D201D3019D
:1003B0003B08D4003C08D500D601D7016E20500878
:1003C000AE005108AF005208B0005308B1003C081D
:1003D000003C031DED293B08430203183A2A31086B
:1003E0003A06031DFD2930083906031DFD292F0893
:1003F0003806031DFD292E083706031D022A7D300D
:10040000C1004A2931083A02031D102A3008390276
:10041000031D102A2F083802031D102A2E08370248
:100420000318152A6430C100182A4B30C100AD09E9
:1004300029083207D00033080318013E2A07D100EB
:100440005008013ED30000300318013E5107D4008C
:100450005308D1005408D200D20CD10CD213250875
:100460005202031D352A240851020318392AFF308D
:10047000AD00472A4B30C1007D30BD00AD01AE015B
:10048000AF01B001B101BB01BC01B6014A292D0881
:100490000319542AFA303D020318502ABD0A532A80
:1004A000FA30BD00AD015E2A3D08013C03185A2A0E
:1004B000BD035E2A0130BD00FF30AD004A295F2A2E
:02400E00D431AB
:020000040000FA
:104200000000FF00FF000000FF00FF00FF00FF00B4
:10421000FF00FF00FF00FF00FF00FF00FF00FF00A6
:10422000FF00FF00FF00FF00FF00FF00FF00FF0096
:10423000FF00FF00FF00FF00FF00FF00FF00FF0086
:10424000FF00FF00FF00FF00FF00FF00FF00FF0076
:10425000FF00FF00FF00FF00FF00FF00FF00FF0066
:10426000FF00FF00FF00FF00FF00FF00FF00FF0056
:10427000FF00FF00FF00FF00FF00FF00FF00FF0046
:10428000FF00FF00FF00FF00FF00FF00FF00FF0036
:10429000FF00FF00FF00FF00FF00FF00FF00FF0026
:1042A000FF00FF00FF00FF00FF00FF00FF00FF0016
:1042B000FF00FF00FF00FF00FF00FF00FF00FF0006
:1042C000FF00FF00FF00FF00FF00FF00FF00FF00F6
:1042D000FF00FF00FF00FF00FF00FF00FF00FF00E6
:1042E000FF00FF00FF00FF00FF00FF00FF00FF00D6
:1042F000FF00FF00FF00FF00FF00FF00FF00FF00C6
:00000001FF

