:02000000C9280D
:10000800DF00030E8301BF000A08BE008A010B1D32
:100018001E28431C182883124108C2004108FF3CCF
:100028008100871043101D2883124208810087141D
:1000380043140B113E088A003F0E8300DF0E5F0E4B
:020048000900AD
:0C004A0007308312DD00DD0B28280800C1
:1000560082308312DC00DD30DD00DD0B3028DC0B66
:08006600302800000000080032
:10006E000D308312DC00FB30DD00DD0B3C28DC0B99
:08007E003C280000000008000E
:10008600C33083129F0540309F05F03083169F04CE
:1000960083129F174508D000D00D5010D00D501078
:1000A60050089F041F1425209F149F1C5C280000E5
:1000B60058281F101E08D100D00183161E085004B0
:1000C600C6005108C7000030C7044608D0004708DC
:0400D600D10008004D
:1000DA0083169C1C722800006D2845089B00460860
:1000EA009A009C131C150B08D0008B1355309D00E9
:1000FA00AA309D009C14D01B84288B1385288B174B
:04010A001C110800BC
:10010E008312450883169B009C131C141A08D100F9
:06011E005108D0000800AA
:10012400831203132230DC00D801D901DA01DB0188
:10013400DC030319C8280310DB0CDA0CD90CD80C27
:10014400D30CD20CD10CD00C031C9A28DC03031959
:10015400BA285408D80755080318550FD907560864
:100164000318560FDA0757080318570FDB079E28A2
:100174005408D80755080318550FD907560803180B
:0E018400560FDA0757080318570FDB0708005D
:1001920007308312990005308316910005148514E7
:1001A200051583121F179F159F17831687100712B5
:1001B20087158312071287144314FA30C000C20154
:1001C200C101C401DF30831681008B160430AB00FD
:1001D20037208719F9282B202B202B20C5014320FB
:1001E2005008AC005108AD00C5012C08C6006D20B6
:1001F2002B20C50187205008AB00500AAB008312A8
:100202001016901017308E00FC308F00A901AA0141
:10021200AC01AD01A101A201A301A401A001A501AC
:100222006430A800DC30A6000530A7008B1710143C
:100232000230C1000230B900FF30BB00FF30BD0008
:10024200BC01B701B801AF01B001FF30AE00B1018E
:1002520083120C1C3929FC308F0017308E000C10D1
:10026200C40A40084402031C392910308706C4011D
:10027200FE304102031C40294030C0004929410898
:100282003902031C47295A30C00049297830C0007E
:100292002108B2002208B3002308B4002408B500E4
:1002A2002C08B7002D08B8002908AF002A08B000B2
:1002B200A901AA01AC01AD01B601C5014320500854
:1002C200AC0751080318013EAD070230C5004320B8
:1002D2005008A90751080318013EAA073608013A37
:1002E20003197529B60A5E29AA0CA90CAA132C08AF
:1002F200D1002D08D200D20CD10CD2135108AC007F
:100302005208AD00A90DAA0D2910A90DAA0D291098
:100312005208003C031D8F2951082B020318432A5F
:100322002C08D0002D08D100D201D3012908D40015
:100332002A08D500D601D70192205008A100510801
:10034200A2005208A3005308A40053083506031D57
:10035200B42952083406031DB42951083306031D7B
:10036200B42950083206031D242AF030C000A5012A
:100372000130BA003C09D1002D083806031DC329FB
:1003820037082C06FF30031D0030D0005108D0047E
:100392000319EE2930082A02031DD1292F08290248
:1003A2000318D629FF30BD00DF292A083002031DB9
:1003B200DC2929082F020318DF29BD012D08380680
:1003C200031DE52937082C06FF30031D0030D0003D
:1003D2003C08D0050319EE29BD092A083006031D81
:1003E200F4292F082906FF30031D0030D0003C08F5
:1003F200D0040319212A38082D02031D022A3708C6
:100402002C020318062ABD01102A2D083802031DEA
:100412000C2A2C0837020318102AFF30BD003C09B1
:10042200D1002A083006031D182A2F082906FF309A
:10043200031D0030D0005108D0050319212ABD093F
:10044200FF30BC00422ABC0135082402031D332AB6
:1004520034082302031D332A33082202031D332AE0
:10046200320821020318372ABD09422AFF3031021D
:1004720003183C2AB10A2E0841020318422A4108F5
:10048200AE005B2AA101A201A301A401FF30BD00BD
:10049200AC01AD01A901AA01BC010230B900FF30D3
:1004A200BB003108003C0318582A2E08C100FF3057
:1004B200AE00B1013D080319722AFF304102031850
:1004C200642AC10A712A3108003C03186D2A2E08D9
:1004D200C100FF30AE00702AFF30C100BD01B10182
:1004E200862A4108023C0318782AC103862A310869
:1004F200003C0318812A2E08C100FF30AE00832A77
:0E0502000230C100FF30BD00B1012929872A57
:02400E00D431AB
:020000040000FA
:104200000000FF00FF000000FF00FF00FF00FF00B4
:10421000FF00FF00FF00FF00FF00FF00FF00FF00A6
:10422000FF00FF00FF00FF00FF00FF00FF00FF0096
:10423000FF00FF00FF00FF00FF00FF00FF00FF0086
:10424000FF00FF00FF00FF00FF00FF00FF00FF0076
:10425000FF00FF00FF00FF00FF00FF00FF00FF0066
:10426000FF00FF00FF00FF00FF00FF00FF00FF0056
:10427000FF00FF00FF00FF00FF00FF00FF00FF0046
:10428000FF00FF00FF00FF00FF00FF00FF00FF0036
:10429000FF00FF00FF00FF00FF00FF00FF00FF0026
:1042A000FF00FF00FF00FF00FF00FF00FF00FF0016
:1042B000FF00FF00FF00FF00FF00FF00FF00FF0006
:1042C000FF00FF00FF00FF00FF00FF00FF00FF00F6
:1042D000FF00FF00FF00FF00FF00FF00FF00FF00E6
:1042E000FF00FF00FF00FF00FF00FF00FF00FF00D6
:1042F000FF00FF00FF00FF00FF00FF00FF00FF00C6
:00000001FF

