:02000000C9280D
:10000800DF00030E8301BF000A08BE008A010B1D32
:100018001E283D1C182883123C08B9003C08FF3CE8
:10002800810087103D101D2883123908810087142C
:100038003D140B113E088A003F0E8300DF0E5F0E51
:020048000900AD
:0C004A0007308312DD00DD0B28280800C1
:1000560082308312DC00DD30DD00DD0B3028DC0B66
:08006600302800000000080032
:10006E000D308312DC00FB30DD00DD0B3C28DC0B99
:08007E003C280000000008000E
:10008600C33083129F0540309F05F03083169F04CE
:1000960083129F174308D000D00D5010D00D50107A
:1000A60050089F041F1425209F149F1C5C280000E5
:1000B60058281F101E08D100D00183161E085004B0
:1000C600C4005108C5000030C5044408D0004508E6
:0400D600D10008004D
:1000DA0083169C1C722800006D2843089B00440864
:1000EA009A009C131C150B08D0008B1355309D00E9
:1000FA00AA309D009C14D01B84288B1385288B174B
:04010A001C110800BC
:10010E008312430883169B009C131C141A08D100FB
:06011E005108D0000800AA
:10012400831203132230DC00D801D901DA01DB0188
:10013400DC030319C8280310DB0CDA0CD90CD80C27
:10014400D30CD20CD10CD00C031C9A28DC03031959
:10015400BA285408D80755080318550FD907560864
:100164000318560FDA0757080318570FDB079E28A2
:100174005408D80755080318550FD907560803180B
:0E018400560FDA0757080318570FDB0708005D
:1001920007308312990005308316910005148514E7
:1001A200051583121F179F159F17831687100712B5
:1001B20087158312071287143D14FA30BA00B90169
:1001C200BC01BB01DF30831681008B160430C200F4
:1001D20037208719F9282B202B202B20C3014320FD
:1001E2005008C0005108C100C3014008C4006D207E
:1001F2002B20C30187205008C200500AC20083127C
:100202001016901017308E00FC308F00B101B20131
:10021200C001C101AD01AE01AF01B001AC01B3013A
:100222006430B700DC30B5000530B6008B1710140F
:100232000230BC000230B400FF30A200FF30A10047
:10024200A001A301A401AA01AB0183120C1C36294F
:10025200FC308F0017308E000C10BB0A3A083B02AC
:10026200031C362910308706BB01FE303C02031CFA
:100272003D294030BA0046293C083402031C442977
:100282005A30BA0046297830BA002D08A6002E0846
:10029200A7002F08A8003008A9004008A3004108C1
:1002A200A4003108AA003208AB00B101B201C001BA
:1002B200C101A501C30143205008C007510803181A
:1002C200013EC1070230C30043205008B107510864
:1002D2000318013EB2072508013A03197229A50A3B
:1002E2005B29B20CB10CB2134008D1004108D20014
:1002F200D20CD10CD2135108C0005208C100B10D6A
:10030200B20D3110B10DB20D31105208003C031D77
:100312008C295108420203182F2A4008D0004108B4
:10032200D100D201D3013108D4003208D500D60160
:10033200D70192205008AD005108AE005208AF001C
:100342005308B00053082906031DB1295208280694
:10035200031DB12951082706031DB129500826069D
:10036200031D192AF030BA00B3010130B800200988
:10037200D10041082406031DC02923084006FF308E
:10038200031D0030D0005108D0040319E8292B08BE
:100392003202031DCE292A0831020318D329FF3065
:1003A200A100E82932082B02031DD92931082A02AB
:1003B2000318DD29A101E82941082406031DE329C8
:1003C20023084006031DE829FF30A0002629320831
:1003D2002B06031DEE292A083106FF30031D0030CB
:1003E200D0002008D0040319162A24084102031D54
:1003F200FC29230840020318012AFF30A100162A13
:1004020041082402031D072A4008230203180B2A6D
:10041200A101162A32082B06031D112A2A083106C9
:10042200031D162AFF30A0002629FF30A0002E2A25
:10043200A00129083002031D282A28082F02031DC3
:10044200282A27082E02031D282A26082D0203180F
:100452002C2AA1092E2A3C08B3003E2AAD01AE0186
:10046200AF01B001FF30A100C001C101B101B20171
:10047200A0010230B400FF30A200210803194B2A68
:10048200FF303C020318472ABC0A4A2A2208BC0051
:10049200A101552A3C08023C0318512ABC03552AE3
:0C04A2003408BC00FF30A1002629562AB7
:02400E00D431AB
:020000040000FA
:104200000000FF00FF000000FF00FF00FF00FF00B4
:10421000FF00FF00FF00FF00FF00FF00FF00FF00A6
:10422000FF00FF00FF00FF00FF00FF00FF00FF0096
:10423000FF00FF00FF00FF00FF00FF00FF00FF0086
:10424000FF00FF00FF00FF00FF00FF00FF00FF0076
:10425000FF00FF00FF00FF00FF00FF00FF00FF0066
:10426000FF00FF00FF00FF00FF00FF00FF00FF0056
:10427000FF00FF00FF00FF00FF00FF00FF00FF0046
:10428000FF00FF00FF00FF00FF00FF00FF00FF0036
:10429000FF00FF00FF00FF00FF00FF00FF00FF0026
:1042A000FF00FF00FF00FF00FF00FF00FF00FF0016
:1042B000FF00FF00FF00FF00FF00FF00FF00FF0006
:1042C000FF00FF00FF00FF00FF00FF00FF00FF00F6
:1042D000FF00FF00FF00FF00FF00FF00FF00FF00E6
:1042E000FF00FF00FF00FF00FF00FF00FF00FF00D6
:1042F000FF00FF00FF00FF00FF00FF00FF00FF00C6
:00000001FF

