:02000000F528E1
:10000800DF00030E8301C2000A08C3008A010B1D2A
:100018001E2883120230870687181A280130A60086
:100028003B08BC003B08FF3C81001D283C08373ECC
:1000380081000B1183120C1C2928FC308F0017300B
:100048008E000C10BE0A0319BF0A43088A00420E2C
:080058008300DF0E5F0E0900BA
:0C00600007308312DD00DD0B33280800A0
:10006C0082308312DC00DD30DD00DD0B3B28DC0B45
:08007C003B2800000000080011
:10008400C33083129F05BF309F05F03083169F0451
:1000940083129F174508D000D00D5010D00D50107A
:1000A40050089F041F1430209F149F1C5B280000DD
:1000B40057281F101E08D100D00183161E085004B3
:1000C400C6005108C7000030C7044608D0004708DE
:0400D400D10008004F
:1000D800831203132230DC00D801D901DA01DB01D5
:1000E800DC030319A2280310DB0CDA0CD90CD80C9A
:1000F800D30CD20CD10CD00C031C7428DC030319CC
:1001080094285408D80755080318550FD9075608D6
:100118000318560FDA0757080318570FDB07782814
:100128005408D80755080318550FD9075608031857
:0E013800560FDA0757080318570FDB070800A9
:1001460083169C1CA8280000A32845089B00460887
:100156009A009C131C150B08D0008B1355309D007C
:10016600AA309D009C14D01BBA288B13BB288B1772
:040176001C11080050
:10017A008312450883169B009C131C141A08D1008D
:06018A005108D00008003E
:10019000831248084602031DCF284708450203186A
:1001A000E8284708FF3CD0004808031C013EFF3CFC
:1001B000D1004508D00746080318013ED107500872
:1001C000013ED20000300318013E5107D300F02851
:1001D00047084502D2004808031C013E4602D300EE
:0A01E0005208D0005308D1000800B7
:1001EA00073083129900053083169100051485148F
:1001FA00051583121F179F159F178316871007125D
:10020A0087158312071287146430C000C101BC012C
:10021A00BB01BE01BF01BD01DF30831681008B1611
:10022A00C401362036206400871937293620362043
:10023A00C50142205008AC005108AD00C5012C0888
:10024A00C600A320362007160430DB008E30DC00FF
:10025A001230DD00DD0B2F29DC0B2F29DB0B2F29B8
:10026A000000071264003620C501BD205008C400F2
:10027A0050081F3C03184229C4018312901090129F
:10028A00101217308E00FC308F000C10B201B3012F
:10029A00AC01AD01AE01AF01B001B10183160C147E
:1002AA000B178B17831210143C30BB00FF30AB00C6
:1002BA00A401A501A201A301A001A10164000230C9
:1002CA00DB008630DC009930DD00DD0B6A29DC0BAF
:1002DA006A29DB0B6A2907160230DB008630DC004C
:1002EA009930DD00DD0B7729DC0B7729DB0B7729C9
:1002FA0007126400A901AA013E08A7003F08A80046
:10030A003E08C5003F08C6002008C7002108C800EB
:10031A00C82051084102031D9429500840020318BD
:10032A009C292708A0002808A10010308706270862
:10033A00C5002808C6002908C7002A08C800C8201E
:10034A005108033C031DAB295008E83C0318B029A7
:10035A00A901AA0164002C08A4002D08A500A60181
:10036A002608003A0319B529C50142205008AC00F5
:10037A005108AD000230C50042205008B2005108B1
:10038A00B3000130B400C50142205008B900510839
:10039A00BA000230C50042205008A7005108A80040
:1003AA002D083A02031DDB292C0839020318E52916
:1003BA003908AC003A08AD002708B2002808B30093
:1003CA003408033A0319EB29B40AC829B20DB30D4C
:1003DA003210B20DB30D32103E08A7003F08A80034
:1003EA003E08C5003F08C6002208C7002308C80007
:1003FA00C82000305102031D042A28305002031875
:10040A00072A9F2A2708A2002808A3002E08B50059
:10041A002F08B6003008B7003108B8003208D000FB
:10042A003308D100D201D3012C08D4002D08D500FD
:10043A00D601D7016C205008AE005108AF0052080F
:10044A00B0005308B1002D08003C031D2E2A2C08C9
:10045A0044020318792A31083806031D3E2A300857
:10046A003706031D3E2A2F083606031D3E2A2E088C
:10047A003506031D462AF430C0000130C100BD0113
:10048A009F2A38083102031D542A37083002031DF7
:10049A00542A36082F02031D542A35082E0203183F
:1004AA00732A9630C000C101BD0A0C303D02FF30EC
:1004BA00031C0030D10025082D02031D662A2408DA
:1004CA002C02FF3003180030D0005108D005031960
:1004DA00712AFF30AB00722AAB09782A2C30C0008F
:1004EA000130C100BD01882A9630C000C1013C30EC
:1004FA00BB00FF30AB00AE01AF01B001B101AC01EE
:10050A00AD01BD019F2A2B080319952AC8303B0269
:10051A000318912ABB0A942AC830BB00AB019F2A50
:10052A003B080A3C03189B2ABB039F2A0A30BB00DC
:08053A00FF30AB008129A02A6B
:02400E00DC31A3
:020000040000FA
:104200000000FF00FF000000FF00FF00FF00FF00B4
:10421000FF00FF00FF00FF00FF00FF00FF00FF00A6
:10422000FF00FF00FF00FF00FF00FF00FF00FF0096
:10423000FF00FF00FF00FF00FF00FF00FF00FF0086
:10424000FF00FF00FF00FF00FF00FF00FF00FF0076
:10425000FF00FF00FF00FF00FF00FF00FF00FF0066
:10426000FF00FF00FF00FF00FF00FF00FF00FF0056
:10427000FF00FF00FF00FF00FF00FF00FF00FF0046
:10428000FF00FF00FF00FF00FF00FF00FF00FF0036
:10429000FF00FF00FF00FF00FF00FF00FF00FF0026
:1042A000FF00FF00FF00FF00FF00FF00FF00FF0016
:1042B000FF00FF00FF00FF00FF00FF00FF00FF0006
:1042C000FF00FF00FF00FF00FF00FF00FF00FF00F6
:1042D000FF00FF00FF00FF00FF00FF00FF00FF00E6
:1042E000FF00FF00FF00FF00FF00FF00FF00FF00D6
:1042F000FF00FF00FF00FF00FF00FF00FF00FF00C6
:00000001FF

