:02000000F528E1
:10000800DF00030E8301BF000A08BE008A010B1D32
:100018001E2883120230870687181A280130BD006F
:100028004408C5004408FF3C81001D284508373EA8
:1000380081000B1183120C1C2928FC308F0017300B
:100048008E000C10BB0A0319BC0A3E088A003F0E3A
:080058008300DF0E5F0E0900BA
:0C00600007308312DD00DD0B33280800A0
:10006C0082308312DC00DD30DD00DD0B3B28DC0B45
:08007C003B2800000000080011
:10008400C33083129F05BF309F05F03083169F0451
:1000940083129F174808D000D00D5010D00D501077
:1000A40050089F041F1430209F149F1C5B280000DD
:1000B40057281F101E08D100D00183161E085004B3
:1000C400C9005108CA000030CA044908D0004A08CF
:0400D400D10008004F
:1000D800831203132230DC00D801D901DA01DB01D5
:1000E800DC030319A2280310DB0CDA0CD90CD80C9A
:1000F800D30CD20CD10CD00C031C7428DC030319CC
:1001080094285408D80755080318550FD9075608D6
:100118000318560FDA0757080318570FDB07782814
:100128005408D80755080318550FD9075608031857
:0E013800560FDA0757080318570FDB070800A9
:1001460083169C1CA8280000A32848089B00490881
:100156009A009C131C150B08D0008B1355309D007C
:10016600AA309D009C14D01BBA288B13BB288B1772
:040176001C11080050
:10017A008312480883169B009C131C141A08D1008A
:06018A005108D00008003E
:1001900083124B084902031DCF284A08480203185E
:1001A000E8284A08FF3CD0004B08031C013EFF3CF6
:1001B000D1004808D00749080318013ED10750086C
:1001C000013ED20000300318013E5107D300F02851
:1001D0004A084802D2004B08031C013E4902D300E2
:0A01E0005208D0005308D1000800B7
:1001EA00073083129900053083169100051485148F
:1001FA00051583121F179F159F178316871007125D
:10020A0087158312071287146430C200C301C5011F
:10021A00C401BB01BC01DF30831681008B16A40127
:10022A003620362064008719362936203620C80140
:10023A0042205008A0005108A100C8012008C900A6
:10024A00A320362007160430DB008E30DC00123083
:10025A00DD00DD0B2E29DC0B2E29DB0B2E290000FD
:10026A00071264003620C801BD205008A4005008B7
:10027A001F3C03184129A4018312901090121012F6
:10028A0017308E00FC308F000C10AB01AC01A001BE
:10029A00A101A701A801A901AA0183160C140B1731
:1002AA008B17831210143C30C400FF30B000AD012C
:1002BA00AE01B701B801B501B601A501A6016400F6
:1002CA000230DB008630DC009930DD00DD0B6B2963
:1002DA00DC0B6B29DB0B6B2907160230DB0086303F
:1002EA00DC009930DD00DD0B7829DC0B7829DB0B8B
:1002FA00782907126400A201A3013B08C0003C0848
:10030A00C1003B08C8003C08C9003508CA003608C5
:10031A00CB00C82051084302031D95295008420208
:10032A0003189D294008B5004108B6001030870619
:10033A004008C8004108C9002208CA002308CB00A7
:10034A00C8205108033C031DAC295008E83C031897
:10035A00B129A201A30164002D08C6002E08C70016
:10036A002B08AD002C08AE00BD013D08003A031968
:10037A00BA29C80142205008A0005108A100023041
:10038A00C80042205008AB005108AC000130AF0051
:10039A00C80142205008B9005108BA000230C8000A
:1003AA0042205008C0005108C1003A082102031D2A
:1003BA00E029390820020318EA293908A0003A0876
:1003CA00A1004008AB004108AC002F08033A03190A
:1003DA00F029AF0ACD29AB0DAC0D2B10AB0DAC0D2E
:1003EA002B103B08C0003C08C1003B08C8003C0871
:1003FA00C9003708CA003808CB00C82000305102AB
:10040A00031D092A1930500203180C2A8A2A4008A7
:10041A00B7004108B8002708B1002808B200290827
:10042A00B3002A08B4002B08D0002C08D100D2014E
:10043A00D3012008D4002108D500D601D7016C20A9
:10044A005008A7005108A8005208A9005308AA009A
:10045A002108003C031D332A200824020318652AB8
:10046A002A083406031D432A29083306031D432A92
:10047A0028083206031D432A27083106031D4A2A83
:10048A00F430C2000130C3008A2A34082A02031D4C
:10049A00582A33082902031D582A32082802031D44
:1004AA00582A310827020318602A2C30C20001306A
:1004BA00C300B009642A2C30C2000130C300732A79
:1004CA00C830C200C3013C30C400FF30B000A701ED
:1004DA00A801A901AA01A001A1018A2A30080319C9
:1004EA00802AC830440203187C2AC40A7F2AC830EA
:1004FA00C400B0018A2A44080A3C0318862AC403A5
:0E050A008A2A0A30C400FF30B00082298B2AF2
:02400E00DC31A3
:020000040000FA
:104200000000FF00FF000000FF00FF00FF00FF00B4
:10421000FF00FF00FF00FF00FF00FF00FF00FF00A6
:10422000FF00FF00FF00FF00FF00FF00FF00FF0096
:10423000FF00FF00FF00FF00FF00FF00FF00FF0086
:10424000FF00FF00FF00FF00FF00FF00FF00FF0076
:10425000FF00FF00FF00FF00FF00FF00FF00FF0066
:10426000FF00FF00FF00FF00FF00FF00FF00FF0056
:10427000FF00FF00FF00FF00FF00FF00FF00FF0046
:10428000FF00FF00FF00FF00FF00FF00FF00FF0036
:10429000FF00FF00FF00FF00FF00FF00FF00FF0026
:1042A000FF00FF00FF00FF00FF00FF00FF00FF0016
:1042B000FF00FF00FF00FF00FF00FF00FF00FF0006
:1042C000FF00FF00FF00FF00FF00FF00FF00FF00F6
:1042D000FF00FF00FF00FF00FF00FF00FF00FF00E6
:1042E000FF00FF00FF00FF00FF00FF00FF00FF00D6
:1042F000FF00FF00FF00FF00FF00FF00FF00FF00C6
:00000001FF

