:02000000F528E1
:10000800DF00030E8301C1000A08C0008A010B1D2E
:100018001E2883120230870687181A280130A2008A
:100028004908C6004908FF3C81001D284608373E9C
:1000380081000B1183120C1C2928FC308F0017300B
:100048008E000C10C70A0319C80A40088A00410E1E
:080058008300DF0E5F0E0900BA
:0C00600007308312DD00DD0B33280800A0
:10006C0082308312DC00DD30DD00DD0B3B28DC0B45
:08007C003B2800000000080011
:10008400C33083129F05BF309F05F03083169F0451
:1000940083129F174B08D000D00D5010D00D501074
:1000A40050089F041F1430209F149F1C5B280000DD
:1000B40057281F101E08D100D00183161E085004B3
:1000C400CC005108CD000030CD044C08D0004D08C0
:0400D400D10008004F
:1000D800831203132230DC00D801D901DA01DB01D5
:1000E800DC030319A2280310DB0CDA0CD90CD80C9A
:1000F800D30CD20CD10CD00C031C7428DC030319CC
:1001080094285408D80755080318550FD9075608D6
:100118000318560FDA0757080318570FDB07782814
:100128005408D80755080318550FD9075608031857
:0E013800560FDA0757080318570FDB070800A9
:1001460083169C1CA8280000A3284B089B004C087B
:100156009A009C131C150B08D0008B1355309D007C
:10016600AA309D009C14D01BBA288B13BB288B1772
:040176001C11080050
:10017A0083124B0883169B009C131C141A08D10087
:06018A005108D00008003E
:1001900083124E084C02031DCF284D084B02031852
:1001A000E8284D08FF3CD0004E08031C013EFF3CF0
:1001B000D1004B08D0074C080318013ED107500866
:1001C000013ED20000300318013E5107D300F02851
:1001D0004D084B02D2004E08031C013E4C02D300D6
:0A01E0005208D0005308D1000800B7
:1001EA00073083129900053083169100051485148F
:1001FA00051583121F179F159F178316871007125D
:10020A0087158312071287146430C200C301C6011E
:10021A00C901C701C801DF30831681008B16A3010B
:10022A003620362064008719362936203620CB013D
:10023A0042205008A0005108A100CB012008CC00A0
:10024A00A320362007160430DB008E30DC00123083
:10025A00DD00DD0B2E29DC0B2E29DB0B2E290000FD
:10026A00071264003620CB01BD205008A3005008B5
:10027A001F3C03184129A3018312901090121012F7
:10028A0017308E00FC308F000C10BA01BB01A001A0
:10029A00A101A801A901AA01AB0183160C140B172D
:1002AA008B17831210141430C900FF30B200AC014E
:1002BA00AD01A601A70164000230DB008630DC0034
:1002CA009930DD00DD0B6729DC0B6729DB0B672919
:1002DA0007160230DB008630DC009930DD00DD0BCA
:1002EA007429DC0B7429DB0B742907126400BC0126
:1002FA00BD01B3014708A4004808A5004708CB0080
:10030A004808CC002608CD002708CE00C82051088E
:10031A004302031D92295008420203189A2924080D
:10032A00A6002508A700103087062408CB00250858
:10033A00CC003C08CD003D08CE00C8205108033C43
:10034A00031DA9295008E83C0318AE29BC01BD01C8
:10035A006400A2012208003A0319AF29CB01422006
:10036A005008A0005108A1000230CB0042205008DA
:10037A00C4005108C5000130CA00CB014220500810
:10038A00BE005108BF000230CB0042205008A40032
:10039A005108A5005008C40751080318013EC507B3
:1003AA00C50CC40CC5133E08A0073F080318013E3C
:1003BA00A107A10CA00CA1134A08033A0319E729C3
:1003CA00CA0AC2294408BA004508BB00BA0DBB0DC7
:1003DA003A10BA0DBB0D3A104708A4004808A50008
:1003EA004708CB004808CC002C08CD002D08CE00C9
:1003FA00C82000305102031D042A64305002031839
:10040A00072AAC2B2408AC002508AD002808AE004A
:10041A002908AF002A08B0002B08B1003A08D0001A
:10042A003B08D100D201D3012008D4002108D5000D
:10043A00D601D7016C205008A8005108A90052081B
:10044A00AA005308AB002008D1002108D200D3012A
:10045A00D4014408D10745080318450FD2074608B6
:10046A000318460FD30747080318470FD407510844
:10047A00D5005208D6005308D7005408D800D50D25
:10048A00D60DD70DD80D5510D50DD60DD70DD80DC3
:10049A0055105508D1005608D2005708D3005808FD
:1004AA00D400D10DD20DD30DD40D51105108B60080
:1004BA005208B7005308B8005408B9000030540273
:1004CA00031D712A00305302031D712A00305202A3
:1004DA00031D712A323051020318782A3230B600CD
:1004EA00B701B801B9012B08003C031D862A2A0866
:1004FA00003C031D862A2908273C031D862A280852
:10050A00103C0318C02A0730D0002808D100290857
:10051A00D2002A08D3002B08D400500803199C2AB9
:10052A00D40CD30CD20CD10CD413FF3E932A390825
:10053A005402031DAA2A38085302031DAA2A37089F
:10054A005202031DAA2A360851020318C02A07308C
:10055A00D0002808B6002908B7002A08B8002B08D6
:10056A00B90050080319C02AB90CB80CB70CB60C5C
:10057A00B913FF3EB72A02302307D1002108003CF5
:10058A00031DC92A200851020318782B33080319BE
:10059A00EF2A4708CB004808CC003408CD003508BC
:1005AA00CE00C8200B305102031DDD2AB83050029C
:1005BA000318EE2AE830C2000330C30001304502B6
:1005CA00031DE92A90304402FF3003180030B200BC
:1005DA00EF2AB3013309D0000319772B2B08310610
:1005EA00031D012B2A083006031D012B29082F069B
:1005FA00031D012B28082E06031D082BF430C20008
:10060A000130C300AC2B31082B02031D162B300816
:10061A002A02031D162B2F082902031D162B2E084A
:10062A0028020318482B2E08D1002F08D2003008C0
:10063A00D3003108D4002808D1022908031C290F45
:10064A00D2022A08031C2A0FD3022B08031C2B0FE1
:10065A00D40239085402031D3C2B38085302031DE7
:10066A003C2B37085202031D3C2B36085102031853
:10067A00432BF430C2000130C300AC2B9630C200C9
:10068A00C301B209772B2808D1002908D2002A0809
:10069A00D3002B08D4002E08D1022F08031C2F0FD9
:1006AA00D2023008031C300FD3023108031C310F69
:1006BA00D40239085402031D6C2B38085302031D57
:1006CA006C2B37085202031D6C2B36085102031893
:1006DA00732BF430C2000130C300AC2B2C30C200A3
:1006EA000130C300952B9630C200C301FF30B3001E
:1006FA004708B4004808B500FF30B200A801A901B4
:10070A00AA01AB01A001A1015F30490203188F2B96
:10071A00C90A942B49085F3C0318942BC903AC2BD4
:10072A0032080319A22BB430490203189E2BC90AB6
:10073A00A12BB430C900B201AC2B49080C3C0318F8
:10074A00A82BC903AC2B0C30C900FF30B2007F299B
:02075A00AD2BC5
:02400E00DC31A3
:020000040000FA
:104200000000FF00FF000000FF00FF00FF00FF00B4
:10421000FF00FF00FF00FF00FF00FF00FF00FF00A6
:10422000FF00FF00FF00FF00FF00FF00FF00FF0096
:10423000FF00FF00FF00FF00FF00FF00FF00FF0086
:10424000FF00FF00FF00FF00FF00FF00FF00FF0076
:10425000FF00FF00FF00FF00FF00FF00FF00FF0066
:10426000FF00FF00FF00FF00FF00FF00FF00FF0056
:10427000FF00FF00FF00FF00FF00FF00FF00FF0046
:10428000FF00FF00FF00FF00FF00FF00FF00FF0036
:10429000FF00FF00FF00FF00FF00FF00FF00FF0026
:1042A000FF00FF00FF00FF00FF00FF00FF00FF0016
:1042B000FF00FF00FF00FF00FF00FF00FF00FF0006
:1042C000FF00FF00FF00FF00FF00FF00FF00FF00F6
:1042D000FF00FF00FF00FF00FF00FF00FF00FF00E6
:1042E000FF00FF00FF00FF00FF00FF00FF00FF00D6
:1042F000FF00FF00FF00FF00FF00FF00FF00FF00C6
:00000001FF

