:02000000C8280E
:10000800DF00030E8301C1000A08C2008A010B1D2C
:100018001E2883120230870687181A280130A80084
:100028003B08BC003B08FF3C81001D283C080F3EF4
:1000380081000B1183120C1C2928F8308F003030F6
:100048008E000C10BE0A0319BF0A42088A00410E2E
:080058008300DF0E5F0E0900BA
:0C00600007308312DD00DD0B33280800A0
:10006C0082308312DC00DD30DD00DD0B3B28DC0B45
:08007C003B2800000000080011
:10008400C33083129F0540309F05F03083169F04D0
:1000940083129F174508D000D00D5010D00D50107A
:1000A40050089F041F1430209F149F1C5B280000DD
:1000B40057281F101E08D100D00183161E085004B3
:1000C400C6005108C7000030C7044608D0004708DE
:0400D400D10008004F
:1000D800831203132230DC00D801D901DA01DB01D5
:1000E800DC030319A2280310DB0CDA0CD90CD80C9A
:1000F800D30CD20CD10CD00C031C7428DC030319CC
:1001080094285408D80755080318550FD9075608D6
:100118000318560FDA0757080318570FDB07782814
:100128005408D80755080318550FD9075608031857
:0E013800560FDA0757080318570FDB070800A9
:1001460083169C1CA8280000A32845089B00460887
:100156009A009C131C150B08D0008B1355309D007C
:10016600AA309D009C14D01BBA288B13BB288B1772
:040176001C11080050
:10017A008312450883169B009C131C141A08D1008D
:06018A005108D00008003E
:1001900007308312990005308316910005148514E9
:1001A000051583121F179F159F17831687100712B7
:1001B00087158312071287146430C000BC01BB018D
:1001C000BE01BF01DF30831681008B16BD013620D2
:1001D000362064008719082936203620C5014220C0
:1001E0005008C3005108C400C5014308C600A3203D
:1001F000362007160430DB008E30DC001230DD00C4
:10020000DD0B0029DC0B0029DB0B002900000712A5
:1002100064003620C501BD205008BD0050081F3CB9
:1002200003181329BD018312901090121012303060
:100230008E00F8308F000C10B201B301C301C4016D
:10024000AE01AF01B001B10183160C140B178B176F
:10025000831210147330BB00AD01AB01AC01A401DB
:10026000A501A201A301A001A10164000230DB00ED
:100270008630DC009930DD00DD0B3C29DC0B3C29AD
:10028000DB0B3C2907160330DB008A30DC005530DD
:10029000DD00DD0B4929DC0B4929DB0B4929000076
:1002A0000000071264003E08A9003F08AA002208C7
:1002B0003E02D1002308031C013E3F02D200520837
:1002C000003C031D65295108400203186E29831262
:1002D0002908A2002A08A30010308706A8012B08CD
:1002E000A6002C08A7003208AB003308AC00280891
:1002F000003A031977290230C50042205008B200A5
:100300005108B300C50142205008C3005108C40081
:10031000B4010230C50042205008A9005108AA00CB
:10032000C50142205008B9005108BA002908B20797
:100330002A080318013EB307B30CB20CB3135008DC
:10034000C30751080318013EC407C40CC30CC413EF
:100350003408043A0319AE29B40A8929B20DB30D41
:100360003210B20DB30D32103E08A9003F08AA00AA
:1003700024083E02D1002508031C013E3F02D200A2
:1003800000305202031DC629193051020318C92931
:10039000852A64002908A4002A08A5002E08B500B3
:1003A0002F08B6003008B7003108B8003208D00076
:1003B0003308D100D201D3014308D4004408D5004A
:1003C000D601D7016C205008AE005108AF0052088A
:1003D000B0005308B1003E08A9003F08AA003C083D
:1003E000733C03180B2A20082902D1002108031CA2
:1003F000013E2A02D2005208083C031D012A51087E
:10040000CA3C03180A2A2908A0002A08A1003D08AE
:10041000C300C4010F2A2908A0002A08A10044082B
:10042000003C031D152A43083D020318622A3108C7
:100430003806031D252A30083706031D252A2F08F4
:100440003606031D252A2E083506031D2A2AFA30F2
:10045000C000852A38083102031D382A37083002C7
:10046000031D382A36082F02031D382A35082E02AC
:1004700003183E2A9630C000AD09402AC830C0009B
:1004800026083207D00033080318013E2707D100A1
:100490005008013ED30000300318013E5107D4003C
:1004A0005308D1005408D200D20CD10CD2132C081E
:1004B0005202031D5D2A2B0851020318612AFF30E6
:1004C000AD006E2A6430C0007330BB00AD01AE01D8
:1004D000AF01B001B101C301C401852A2D08031980
:1004E0007B2AF0303B020318772ABB0A7A2AF030C5
:1004F000BB00AD01852A3B08013C0318812ABB03E0
:0E050000852A0130BB00FF30AD005329862A4A
:02400E00DC31A3
:020000040000FA
:104200000000FF00FF000000FF00FF00FF00FF00B4
:10421000FF00FF00FF00FF00FF00FF00FF00FF00A6
:10422000FF00FF00FF00FF00FF00FF00FF00FF0096
:10423000FF00FF00FF00FF00FF00FF00FF00FF0086
:10424000FF00FF00FF00FF00FF00FF00FF00FF0076
:10425000FF00FF00FF00FF00FF00FF00FF00FF0066
:10426000FF00FF00FF00FF00FF00FF00FF00FF0056
:10427000FF00FF00FF00FF00FF00FF00FF00FF0046
:10428000FF00FF00FF00FF00FF00FF00FF00FF0036
:10429000FF00FF00FF00FF00FF00FF00FF00FF0026
:1042A000FF00FF00FF00FF00FF00FF00FF00FF0016
:1042B000FF00FF00FF00FF00FF00FF00FF00FF0006
:1042C000FF00FF00FF00FF00FF00FF00FF00FF00F6
:1042D000FF00FF00FF00FF00FF00FF00FF00FF00E6
:1042E000FF00FF00FF00FF00FF00FF00FF00FF00D6
:1042F000FF00FF00FF00FF00FF00FF00FF00FF00C6
:00000001FF

