:02000000E628F0
:10000800DF00030E8301C1000A08C2008A010B1D2C
:100018001E283B1C182883123F08C0003F08FF3CDD
:10002800810087103B101D28831240088100871427
:100038003B140B1142088A00410E8300DF0E5F0E4D
:020048000900AD
:0C004A0007308312DD00DD0B28280800C1
:100056000D308312DC00FB30DD00DD0B3028DC0BBD
:08006600302800000000080032
:10006E0082308312DC00DD30DD00DD0B3C28DC0B42
:08007E003C280000000008000E
:10008600C33083129F0540309F05F03083169F04CE
:1000960083129F174608D000D00D5010D00D501077
:1000A60050089F041F1425209F149F1C5C280000E5
:1000B60058281F101E08D100D00183161E085004B0
:1000C600C7005108C8000030C8044708D0004808D7
:0400D600D10008004D
:1000DA0083120313D801D9011030DC00510DD80D59
:1000EA00D90D5408D8025508031C550FD902031814
:1000FA0085285408D80755080318550FD90703103F
:0A010A00D00DD10DDC0B73280800A6
:1001140083169C1C8F2800008A2846089B004708E9
:100124009A009C131C150B08D0008B1355309D00AE
:10013400AA309D009C14D01BA1288B13A2288B17D6
:040144001C11080082
:100148008312460883169B009C131C141A08D100BE
:060158005108D000080070
:10015E00831203132230DC00D801D901DA01DB014E
:10016E00DC030319E5280310DB0CDA0CD90CD80CD0
:10017E00D30CD20CD10CD00C031CB728DC03031902
:10018E00D7285408D80755080318550FD90756080D
:10019E000318560FDA0757080318570FDB07BB284B
:1001AE005408D80755080318550FD90756080318D1
:0E01BE00560FDA0757080318570FDB07080023
:1001CC0007308312990005308316910005148514AD
:1001DC00051583121F179F159F178316871007127B
:1001EC0087158312071287143B14FA30BD00C00127
:1001FC00BF01BE01DF30831681008B160430BC00BA
:10020C002B2087191629372037203720C601432089
:10021C005008C3005108C400C6014308C7008A2017
:10022C003720C601A4205008BC00500ABC00C501F0
:10023C000330C600A4205008C5008312101690107D
:10024C0017308E00FC308F00B201B301C301C40122
:10025C00AE01AF01B001B101AD01B4016430B80021
:10026C00DC30B6000530B7008B1710140230BF001D
:10027C000230B500FF30AC00FF30A300A201A0019A
:10028C00A101A401A50183120C1C5929FC308F007B
:10029C0017308E000C10BE0A3D083E02031C592973
:1002AC0010308706BE01FE303F02031C602940302F
:1002BC00BD0069293F083502031C67295A30BD006F
:1002CC0069297830BD002E08A8002F08A900300835
:1002DC00AA003108AB004308A0004408A100320872
:1002EC00A4003308A500B201B301C301C401A701E6
:1002FC00C60143205008C30751080318013EC40728
:10030C000230C60043205008B20751080318013EC2
:10031C00B3072708003A03199529A70A7E29440830
:10032C00003C031D9B2943083C020318E32A4308A5
:10033C00D0004408D100D201D3013208D4003308D4
:10034C00D500D601D701AF205008AE005108AF0040
:10035C005208B0005308B10053082B06031DC029E6
:10036C0052082A06031DC02951082906031DC0295D
:10037C0050082806031D282AF030BD00B4010130B6
:10038C00A6002209D10044082106031DCF2920080C
:10039C004306FF30031D0030D0005108D004031970
:1003AC00F72925083302031DDD292408320203181E
:1003BC00E229FF30A300F72933082502031DE829A1
:1003CC00320824020318EC29A301F729440821065A
:1003DC00031DF22920084306031DF729FF30A20054
:1003EC00492933082506031DFD2924083206FF3050
:1003FC00031D0030D0002208D0040319252A21083F
:10040C004402031D0B2A200843020318102AFF3054
:10041C00A300252A44082102031D162A43082002A2
:10042C0003181A2AA301252A33082506031D202A9E
:10043C0024083206031D252AFF30A2004929FF306B
:10044C00A200E22AA2010830260203182E2AA60ACC
:10045C002B083102031D3C2A2A083002031D3C2ABA
:10046C0029082F02031D3C2A28082E020318E02A13
:10047C003F08AD00A3093408003A0319DF2A013004
:10048C00A6002D08B900BA013408B9070318BA0A36
:10049C00B90A0319BA0ABA0CB90CBA130330B90762
:1004AC000318BA0A3A08003AFF3003190030D10099
:1004BC003908FF3CFF3003180030D0005108D0043D
:1004CC0003196D2AFF30B9000030BA00752A0230CA
:1004DC0039020318752A0230B9000030BA00390805
:1004EC00BF00B4013908FF3CD0000030031C013EB2
:1004FC00D101D1020330D0070318D10A0630D40041
:10050C00D5016D205008B9005108BA003F08D2003F
:10051C00D30152085007B90051080318013E530784
:10052C00BA003A08003AFF3003190030D1003908FC
:10053C00FF3CFF3003180030D0005108D0040319E1
:10054C00AA2AFF30B900BA013908AC0002303F02C8
:10055C00D0000030031C013ED101D1020830D0077D
:10056C000318D10A0F30D400D5016D205008B90002
:10057C005108BA003F08B900BA015008B902031C6F
:10058C00BA035108BA023A08003AFF300319003096
:10059C00D10002303902FF3003180030D00051086E
:1005AC00D0040319DC2A0230B900BA013908B500AD
:1005BC004929E22A3F08B400F52AAE01AF01B00187
:1005CC00B1010830A600FF30A300B401C301C4017F
:1005DC00B201B3010230B500FF30AC00A201230818
:1005EC000319062B26082C02D10051083F020318D0
:1005FC00022B2608BF07052B2C08BF00A3011A2BC2
:10060C0035083F02D2002608093CD100520851029D
:10061C000318162B2608093CD0005008BF021A2BD1
:0C062C003508BF00FF30A30049291B2B3C
:02400E00D431AB
:020000040000FA
:104200000000FF00FF000000FF00FF00FF00FF00B4
:10421000FF00FF00FF00FF00FF00FF00FF00FF00A6
:10422000FF00FF00FF00FF00FF00FF00FF00FF0096
:10423000FF00FF00FF00FF00FF00FF00FF00FF0086
:10424000FF00FF00FF00FF00FF00FF00FF00FF0076
:10425000FF00FF00FF00FF00FF00FF00FF00FF0066
:10426000FF00FF00FF00FF00FF00FF00FF00FF0056
:10427000FF00FF00FF00FF00FF00FF00FF00FF0046
:10428000FF00FF00FF00FF00FF00FF00FF00FF0036
:10429000FF00FF00FF00FF00FF00FF00FF00FF0026
:1042A000FF00FF00FF00FF00FF00FF00FF00FF0016
:1042B000FF00FF00FF00FF00FF00FF00FF00FF0006
:1042C000FF00FF00FF00FF00FF00FF00FF00FF00F6
:1042D000FF00FF00FF00FF00FF00FF00FF00FF00E6
:1042E000FF00FF00FF00FF00FF00FF00FF00FF00D6
:1042F000FF00FF00FF00FF00FF00FF00FF00FF00C6
:00000001FF

