:02000000C8280E
:10000800DF00030E8301C1000A08C2008A010B1D2C
:100018001E2883120230870687181A280130A60086
:100028003B08BC003B08FF3C81001D283C08053EFE
:1000380081000B1183120C1C2928F8308F003030F6
:100048008E000C10BE0A0319BF0A42088A00410E2E
:080058008300DF0E5F0E0900BA
:0C00600007308312DD00DD0B33280800A0
:10006C0082308312DC00DD30DD00DD0B3B28DC0B45
:08007C003B2800000000080011
:10008400C33083129F0540309F05F03083169F04D0
:1000940083129F174508D000D00D5010D00D50107A
:1000A40050089F041F1430209F149F1C5B280000DD
:1000B40057281F101E08D100D00183161E085004B3
:1000C400C6005108C7000030C7044608D0004708DE
:0400D400D10008004F
:1000D800831203132230DC00D801D901DA01DB01D5
:1000E800DC030319A2280310DB0CDA0CD90CD80C9A
:1000F800D30CD20CD10CD00C031C7428DC030319CC
:1001080094285408D80755080318550FD9075608D6
:100118000318560FDA0757080318570FDB07782814
:100128005408D80755080318550FD9075608031857
:0E013800560FDA0757080318570FDB070800A9
:1001460083169C1CA8280000A32845089B00460887
:100156009A009C131C150B08D0008B1355309D007C
:10016600AA309D009C14D01BBA288B13BB288B1772
:040176001C11080050
:10017A008312450883169B009C131C141A08D1008D
:06018A005108D00008003E
:1001900007308312990005308316910005148514E9
:1001A000051583121F179F159F17831687100712B7
:1001B00087158312071287146430C000BC01BB018D
:1001C000BE01BF01DF30831681008B16BD013620D2
:1001D000362064008719082936203620C5014220C0
:1001E0005008C3005108C400C5014308C600A3203D
:1001F000362007160430DB008E30DC001230DD00C4
:10020000DD0B0029DC0B0029DB0B002900000712A5
:1002100064003620C501BD205008BD0050081F3CB9
:1002200003181329BD018312901090121012303060
:100230008E00F8308F000C10B201B301C301C4016D
:10024000AE01AF01B001B10183160C140B178B176F
:10025000831210140A30BB00FF30AD00AB01AC01BB
:10026000A401A501A201A301A001A1016400023023
:10027000DB008630DC009930DD00DD0B3D29DC0B36
:100280003D29DB0B3D2907160230DB008630DC0000
:100290009930DD00DD0B4A29DC0B4A29DB0B4A29AA
:1002A000071264003E08A9003F08AA0022083E0287
:1002B000D1002308031C013E3F02D2005208003C3B
:1002C000031D64295108400203186D29831229086F
:1002D000A2002A08A300103087062B08A7002C08CC
:1002E000A8003208AB003308AC00A601C5014220CB
:1002F0005008C3005108C4000230C5004220500815
:10030000B2005108B300B401C50142205008B90041
:100310005108BA000230C50042205008A900510817
:10032000AA005008B20751080318013EB307B30CE6
:10033000B20CB3133A084402031DA0293908430242
:100340000318A6293908C3003A08C4003408033A40
:100350000319AC29B40A8429B20DB30D3210B20DC1
:10036000B30D32103E08A9003F08AA0024083E023F
:10037000D1002508031C013E3F02D200003052028A
:10038000031DC4290F3051020318C729632A6400D2
:100390002908A4002A08A5002E08B5002F08B600D9
:1003A0003008B7003108B8003208D0003308D10057
:1003B000D201D3014308D4004408D500D601D701A7
:1003C0006C205008AE005108AF005208B00053082E
:1003D000B1003E08A9003F08AA003C08783C031879
:1003E000092A20082902D1002108031C013E2A0203
:1003F000D2005208083C031DFF295108CA3C0318CB
:10040000082A2908A0002A08A1003D08C300C40149
:100410000D2A2908A0002A08A1004408003C031D59
:10042000132A43083D0203183F2A31083806031DEA
:10043000232A30083706031D232A2F083606031DFA
:10044000232A2E083506031D282AFA30C000632A05
:1004500038083102031D362A37083002031D362AB8
:1004600036082F02031D362A35082E0203183C2AAF
:100470009630C000AD093E2AC830C0004C2A643016
:10048000C0000A30BB00FF30AD00AE01AF01B001CB
:10049000B101C301C401632A2D080319592AFA3096
:1004A0003B020318552ABB0A582AFA30BB00AD019B
:1004B000632A3B080A3C03185F2ABB03632A0A30FD
:0A04C000BB00FF30AD005229642A92
:02400E00DC31A3
:020000040000FA
:104200000000FF00FF000000FF00FF00FF00FF00B4
:10421000FF00FF00FF00FF00FF00FF00FF00FF00A6
:10422000FF00FF00FF00FF00FF00FF00FF00FF0096
:10423000FF00FF00FF00FF00FF00FF00FF00FF0086
:10424000FF00FF00FF00FF00FF00FF00FF00FF0076
:10425000FF00FF00FF00FF00FF00FF00FF00FF0066
:10426000FF00FF00FF00FF00FF00FF00FF00FF0056
:10427000FF00FF00FF00FF00FF00FF00FF00FF0046
:10428000FF00FF00FF00FF00FF00FF00FF00FF0036
:10429000FF00FF00FF00FF00FF00FF00FF00FF0026
:1042A000FF00FF00FF00FF00FF00FF00FF00FF0016
:1042B000FF00FF00FF00FF00FF00FF00FF00FF0006
:1042C000FF00FF00FF00FF00FF00FF00FF00FF00F6
:1042D000FF00FF00FF00FF00FF00FF00FF00FF00E6
:1042E000FF00FF00FF00FF00FF00FF00FF00FF00D6
:1042F000FF00FF00FF00FF00FF00FF00FF00FF00C6
:00000001FF

