:02000000F528E1
:10000800DF00030E8301C1000A08C2008A010B1D2C
:100018001E2883120230870687181A280130A70085
:100028004008BB004008FF3C81001D283B08373EC4
:1000380081000B1183120C1C2928FC308F0017300B
:100048008E000C10BE0A0319BF0A42088A00410E2E
:080058008300DF0E5F0E0900BA
:0C00600007308312DD00DD0B33280800A0
:10006C0082308312DC00DD30DD00DD0B3B28DC0B45
:08007C003B2800000000080011
:10008400C33083129F05BF309F05F03083169F0451
:1000940083129F174408D000D00D5010D00D50107B
:1000A40050089F041F1430209F149F1C5B280000DD
:1000B40057281F101E08D100D00183161E085004B3
:1000C400C5005108C6000030C6044508D0004608E3
:0400D400D10008004F
:1000D800831203132230DC00D801D901DA01DB01D5
:1000E800DC030319A2280310DB0CDA0CD90CD80C9A
:1000F800D30CD20CD10CD00C031C7428DC030319CC
:1001080094285408D80755080318550FD9075608D6
:100118000318560FDA0757080318570FDB07782814
:100128005408D80755080318550FD9075608031857
:0E013800560FDA0757080318570FDB070800A9
:1001460083169C1CA8280000A32844089B00450889
:100156009A009C131C150B08D0008B1355309D007C
:10016600AA309D009C14D01BBA288B13BB288B1772
:040176001C11080050
:10017A008312440883169B009C131C141A08D1008E
:06018A005108D00008003E
:10019000831247084502031DCF284608440203186E
:1001A000E8284608FF3CD0004708031C013EFF3CFE
:1001B000D1004408D00745080318013ED107500874
:1001C000013ED20000300318013E5107D300F02851
:1001D00046084402D2004708031C013E4502D300F2
:0A01E0005208D0005308D1000800B7
:1001EA00073083129900053083169100051485148F
:1001FA00051583121F179F159F178316871007125D
:10020A0087158312071287146430BC00BD01BB0135
:10021A00C001BE01BF01DF30831681008B16C30106
:10022A003620362064008719362936203620C40144
:10023A0042205008B9005108BA00C4013908C50063
:10024A00A320362007160430DB008E30DC00123083
:10025A00DD00DD0B2E29DC0B2E29DB0B2E290000FD
:10026A00071264003620C401BD205008C30050089C
:10027A001F3C03184129C3018312901090121012D7
:10028A0017308E00FC308F000C10B101B201B90199
:10029A00BA01AD01AE01AF01B00183160C140B1700
:1002AA008B17831210143C30C000FF30AC00AA0137
:1002BA00AB01A401A501A201A30164000230DB0085
:1002CA008630DC009930DD00DD0B6929DC0B6929F9
:1002DA00DB0B692907160230DB008630DC00993017
:1002EA00DD00DD0B7629DC0B7629DB0B762907127C
:1002FA006400A001A1013E08A8003F08A9003E0829
:10030A00C4003F08C5002208C6002308C700C82049
:10031A0051083D02031D932950083C0203189B29EA
:10032A002808A2002908A300103087062808C4005C
:10033A002908C5002008C6002108C700C82051089E
:10034A00033C031DAA295008E83C0318AF29A00161
:10035A00A10164003908AA003A08AB00A7012708DE
:10036A00003A0319B429C40142205008B9005108BF
:10037A00BA000230C40042205008B1005108B2004D
:10038A000130A600C40142205008B7005108B80045
:10039A000230C40042205008A8005108A9003A08B7
:1003AA003802031DDA29390837020318E429370805
:1003BA00B9003808BA002808B1002908B20026088E
:1003CA00033A0319EA29A60AC7293E08A8003F08E2
:1003DA00A9003E08C4003F08C5002408C600250835
:1003EA00C700C82000305102031DFD2928305002E1
:1003FA000318002A892A2808A4002908A5002D081C
:10040A00B3002E08B4002F08B5003008B600310832
:10041A00D0003208D100D201D3013908D4003A08F9
:10042A00D500D601D7016C205008AD005108AE00A6
:10043A005208AF005308B0003A08003C031D272AAF
:10044A00390843020318642A30083606031D372A7E
:10045A002F083506031D372A2E083406031D372AAE
:10046A002D083306031D3E2AF430BC000130BD00BE
:10047A00892A36083002031D4C2A35082F02031D2B
:10048A004C2A34082E02031D4C2A33082D02031865
:10049A005F2A2C30BC000130BD002B083A02031D34
:1004AA00582A2A08390203185D2AFF30AC005E2A4E
:1004BA00AC09632A2C30BC000130BD00722AC83056
:1004CA00BC00BD013C30C000FF30AC00AD01AE0144
:1004DA00AF01B001B901BA01892A2C0803197F2A90
:1004EA00C830400203187B2AC00A7E2AC830C000DE
:1004FA00AC01892A40080A3C0318852AC003892AC4
:0C050A000A30C000FF30AC0080298A2AB3
:02400E00DC31A3
:020000040000FA
:104200000000FF00FF000000FF00FF00FF00FF00B4
:10421000FF00FF00FF00FF00FF00FF00FF00FF00A6
:10422000FF00FF00FF00FF00FF00FF00FF00FF0096
:10423000FF00FF00FF00FF00FF00FF00FF00FF0086
:10424000FF00FF00FF00FF00FF00FF00FF00FF0076
:10425000FF00FF00FF00FF00FF00FF00FF00FF0066
:10426000FF00FF00FF00FF00FF00FF00FF00FF0056
:10427000FF00FF00FF00FF00FF00FF00FF00FF0046
:10428000FF00FF00FF00FF00FF00FF00FF00FF0036
:10429000FF00FF00FF00FF00FF00FF00FF00FF0026
:1042A000FF00FF00FF00FF00FF00FF00FF00FF0016
:1042B000FF00FF00FF00FF00FF00FF00FF00FF0006
:1042C000FF00FF00FF00FF00FF00FF00FF00FF00F6
:1042D000FF00FF00FF00FF00FF00FF00FF00FF00E6
:1042E000FF00FF00FF00FF00FF00FF00FF00FF00D6
:1042F000FF00FF00FF00FF00FF00FF00FF00FF00C6
:00000001FF

