:02000000C8280E
:10000800DF00030E8301C1000A08C2008A010B1D2C
:100018001E2883120230870687181A280130A60086
:100028003B08BC003B08FF3C81001D283C08053EFE
:1000380081000B1183120C1C2928F8308F003030F6
:100048008E000C10BE0A0319BF0A42088A00410E2E
:080058008300DF0E5F0E0900BA
:0C00600007308312DD00DD0B33280800A0
:10006C0082308312DC00DD30DD00DD0B3B28DC0B45
:08007C003B2800000000080011
:10008400C33083129F0540309F05F03083169F04D0
:1000940083129F174508D000D00D5010D00D50107A
:1000A40050089F041F1430209F149F1C5B280000DD
:1000B40057281F101E08D100D00183161E085004B3
:1000C400C6005108C7000030C7044608D0004708DE
:0400D400D10008004F
:1000D800831203132230DC00D801D901DA01DB01D5
:1000E800DC030319A2280310DB0CDA0CD90CD80C9A
:1000F800D30CD20CD10CD00C031C7428DC030319CC
:1001080094285408D80755080318550FD9075608D6
:100118000318560FDA0757080318570FDB07782814
:100128005408D80755080318550FD9075608031857
:0E013800560FDA0757080318570FDB070800A9
:1001460083169C1CA8280000A32845089B00460887
:100156009A009C131C150B08D0008B1355309D007C
:10016600AA309D009C14D01BBA288B13BB288B1772
:040176001C11080050
:10017A008312450883169B009C131C141A08D1008D
:06018A005108D00008003E
:1001900007308312990005308316910005148514E9
:1001A000051583121F179F159F17831687100712B7
:1001B00087158312071287146430C000BC01BB018D
:1001C000BE01BF01DF30831681008B16BD013620D2
:1001D000362064008719082936203620C5014220C0
:1001E0005008C3005108C400C5014308C600A3203D
:1001F000362007160430DB008E30DC001230DD00C4
:10020000DD0B0029DC0B0029DB0B002900000712A5
:1002100064003620C501BD205008BD0050081F3CB9
:1002200003181329BD018312901090121012303060
:100230008E00F8308F000C10B201B301C301C4016D
:10024000AE01AF01B001B10183160C140B178B176F
:10025000831210147830BB00AD01AB01AC01A401D6
:10026000A501A201A301A001A10164000230DB00ED
:100270008630DC009930DD00DD0B3C29DC0B3C29AD
:10028000DB0B3C2907160330DB008A30DC005530DD
:10029000DD00DD0B4929DC0B4929DB0B4929000076
:1002A0000000071264003E08A9003F08AA002208C7
:1002B0003E02D1002308031C013E3F02D200520837
:1002C000003C031D65295108400203186E29831262
:1002D0002908A2002A08A300103087062B08A700CF
:1002E0002C08A8003208AB003308AC00A601260891
:1002F000003A03197729C50142205008C30051086C
:10030000C4000230C50042205008B2005108B300BA
:10031000B401C50142205008B9005108BA000230AA
:10032000C50042205008A9005108AA005008B20791
:1003300051080318013EB307B30CB20CB3133A08CB
:100340004402031DA529390843020318AB293908C3
:10035000C3003A08C4003408083A0319B129B40AA2
:100360008929B20DB30D3210B20DB30D32103E0813
:10037000A9003F08AA0024083E02D1002508031C5A
:10038000013E3F02D20000305202031DC92919303C
:1003900051020318CC29672A64002908A4002A08FE
:1003A000A5002E08B5002F08B6003008B7003108A8
:1003B000B8003208D0003308D100D201D30143087D
:1003C000D4004408D500D601D7016C205008AE00F7
:1003D0005108AF005208B0005308B1003E08A90010
:1003E0003F08AA003C08783C03180E2A200829027E
:1003F000D1002108031C013E2A02D2005208083C09
:10040000031D042A5108CA3C03180D2A2908A0001C
:100410002A08A1003D08C300C401122A2908A0002F
:100420002A08A1004408003C031D182A43083D0285
:100430000318442A31083806031D282A30083706D5
:10044000031D282A2F083606031D282A2E083506E4
:10045000031D2D2AFA30C000672A38083102031D17
:100460003B2A37083002031D3B2A36082F02031DA2
:100470003B2A35082E020318412A9630C000AD09E8
:10048000432AC830C000502A6430C0007830BB0016
:10049000AD01AE01AF01B001B101C301C401672AD2
:1004A0002D0803195D2AFA303B020318592ABB0AAA
:1004B0005C2AFA30BB00AD01672A3B08013C0318F7
:1004C000632ABB03672A0130BB00FF30AD0053290C
:0204D000682A98
:02400E00DC31A3
:020000040000FA
:104200000000FF00FF000000FF00FF00FF00FF00B4
:10421000FF00FF00FF00FF00FF00FF00FF00FF00A6
:10422000FF00FF00FF00FF00FF00FF00FF00FF0096
:10423000FF00FF00FF00FF00FF00FF00FF00FF0086
:10424000FF00FF00FF00FF00FF00FF00FF00FF0076
:10425000FF00FF00FF00FF00FF00FF00FF00FF0066
:10426000FF00FF00FF00FF00FF00FF00FF00FF0056
:10427000FF00FF00FF00FF00FF00FF00FF00FF0046
:10428000FF00FF00FF00FF00FF00FF00FF00FF0036
:10429000FF00FF00FF00FF00FF00FF00FF00FF0026
:1042A000FF00FF00FF00FF00FF00FF00FF00FF0016
:1042B000FF00FF00FF00FF00FF00FF00FF00FF0006
:1042C000FF00FF00FF00FF00FF00FF00FF00FF00F6
:1042D000FF00FF00FF00FF00FF00FF00FF00FF00E6
:1042E000FF00FF00FF00FF00FF00FF00FF00FF00D6
:1042F000FF00FF00FF00FF00FF00FF00FF00FF00C6
:00000001FF

